{
  "_format": "hh-sol-artifact-1",
  "contractName": "MerkleVerifier",
  "sourceName": "contracts/MerkleVerifier.sol",
  "abi": [
    {
      "inputs": [],
      "stateMutability": "nonpayable",
      "type": "constructor"
    },
    {
      "inputs": [],
      "name": "merkleRoot",
      "outputs": [
        {
          "internalType": "bytes32",
          "name": "",
          "type": "bytes32"
        }
      ],
      "stateMutability": "view",
      "type": "function"
    },
    {
      "inputs": [],
      "name": "owner",
      "outputs": [
        {
          "internalType": "address",
          "name": "",
          "type": "address"
        }
      ],
      "stateMutability": "view",
      "type": "function"
    },
    {
      "inputs": [
        {
          "internalType": "bytes32",
          "name": "_merkleRoot",
          "type": "bytes32"
        }
      ],
      "name": "setMerkleRoot",
      "outputs": [],
      "stateMutability": "nonpayable",
      "type": "function"
    },
    {
      "inputs": [
        {
          "internalType": "bytes32[]",
          "name": "proof",
          "type": "bytes32[]"
        },
        {
          "internalType": "bytes32",
          "name": "transactionHash",
          "type": "bytes32"
        }
      ],
      "name": "verifyTransaction",
      "outputs": [
        {
          "internalType": "bool",
          "name": "",
          "type": "bool"
        }
      ],
      "stateMutability": "view",
      "type": "function"
    }
  ],
  "bytecode": "0x6080604052348015600f57600080fd5b50336000806101000a81548173ffffffffffffffffffffffffffffffffffffffff021916908373ffffffffffffffffffffffffffffffffffffffff1602179055506106928061005f6000396000f3fe608060405234801561001057600080fd5b506004361061004c5760003560e01c80632eb4a7ab1461005157806342e496421461006f5780637cb647591461009f5780638da5cb5b146100bb575b600080fd5b6100596100d9565b6040516100669190610294565b60405180910390f35b61008960048036038101906100849190610448565b6100df565b60405161009691906104bf565b60405180910390f35b6100b960048036038101906100b491906104da565b6101bf565b005b6100c3610257565b6040516100d09190610548565b60405180910390f35b60015481565b60008082905060005b84518110156101b05784818151811061010457610103610563565b5b602002602001015182101561015d578185828151811061012757610126610563565b5b60200260200101516040516020016101409291906105b3565b6040516020818303038152906040528051906020012091506101a3565b8481815181106101705761016f610563565b5b60200260200101518260405160200161018a9291906105b3565b6040516020818303038152906040528051906020012091505b80806001019150506100e8565b50600154811491505092915050565b60008054906101000a900473ffffffffffffffffffffffffffffffffffffffff1673ffffffffffffffffffffffffffffffffffffffff163373ffffffffffffffffffffffffffffffffffffffff161461024d576040517f08c379a00000000000000000000000000000000000000000000000000000000081526004016102449061063c565b60405180910390fd5b8060018190555050565b60008054906101000a900473ffffffffffffffffffffffffffffffffffffffff1681565b6000819050919050565b61028e8161027b565b82525050565b60006020820190506102a96000830184610285565b92915050565b6000604051905090565b600080fd5b600080fd5b600080fd5b6000601f19601f8301169050919050565b7f4e487b7100000000000000000000000000000000000000000000000000000000600052604160045260246000fd5b610311826102c8565b810181811067ffffffffffffffff821117156103305761032f6102d9565b5b80604052505050565b60006103436102af565b905061034f8282610308565b919050565b600067ffffffffffffffff82111561036f5761036e6102d9565b5b602082029050602081019050919050565b600080fd5b61038e8161027b565b811461039957600080fd5b50565b6000813590506103ab81610385565b92915050565b60006103c46103bf84610354565b610339565b905080838252602082019050602084028301858111156103e7576103e6610380565b5b835b8181101561041057806103fc888261039c565b8452602084019350506020810190506103e9565b5050509392505050565b600082601f83011261042f5761042e6102c3565b5b813561043f8482602086016103b1565b91505092915050565b6000806040838503121561045f5761045e6102b9565b5b600083013567ffffffffffffffff81111561047d5761047c6102be565b5b6104898582860161041a565b925050602061049a8582860161039c565b9150509250929050565b60008115159050919050565b6104b9816104a4565b82525050565b60006020820190506104d460008301846104b0565b92915050565b6000602082840312156104f0576104ef6102b9565b5b60006104fe8482850161039c565b91505092915050565b600073ffffffffffffffffffffffffffffffffffffffff82169050919050565b600061053282610507565b9050919050565b61054281610527565b82525050565b600060208201905061055d6000830184610539565b92915050565b7f4e487b7100000000000000000000000000000000000000000000000000000000600052603260045260246000fd5b6000819050919050565b6105ad6105a88261027b565b610592565b82525050565b60006105bf828561059c565b6020820191506105cf828461059c565b6020820191508190509392505050565b600082825260208201905092915050565b7f4e6f742074686520636f6e7472616374206f776e657200000000000000000000600082015250565b60006106266016836105df565b9150610631826105f0565b602082019050919050565b6000602082019050818103600083015261065581610619565b905091905056fea264697066735822122078df72dd05c8237ebb92d74bb15898ac8b6b450882a59f79a8c2799a8afe28ce64736f6c634300081b0033",
  "linkReferences": {},
  "deployedLinkReferences": {}
}